:1000000000000320D101000021530000D95200005C
:10001000D9520000D9520000D9520000D952000034
:10002000D9520000D9520000D952000021530000DB
:1000300021530000D952000021530000C952000092
:1000400021530000215300002153000021530000E0
:1000500021530000215300002153000021530000D0
:1000600021530000215300002153000021530000C0
:1000700021530000215300002153000021530000B0
:1000800021530000215300002153000021530000A0
:100090002153000021530000215300002153000090
:1000A000B93B0000C53B0000215300002153000074
:1000B000215300002153000021530000355B000054
:1000C00021530000916200002153000011680000DC
:1000D00021530000296E000021530000215300002D
:1000E0002153000021530000215300002153000040
:1000F0002153000021530000215300002153000030
:10010000215300002153000021530000215300001F
:10011000215300007D4200002153000021530000C4
:1001200021530000215300002153000021530000FF
:1001300021530000215300002153000021530000EF
:10014000215300002153000075730000215300006B
:1001500021530000215300002153000021530000CF
:100160002153000021530000D13B00002153000027
:1001700021530000215300002153000021530000AF
:1001800021530000C1210000215300002153000031
:100190002153000021530000B579000021530000D5
:1001A000215300002153000021530000215300007F
:1001B000215300002153000021530000215300006F
:1001C000215300002153000021530000215300005F
:1001D0005C4B4CF2205210B51A804DF628121A8052
:1001E00000BF00BF05F0A0F8574B4FF030621A6017
:1001F000564A9A60564ADA60564B4FF470021A60BB
:10020000554B564A1A60564A136813F4807304D14A
:1002100054490B604FF4A8531360534B1A781107DD
:1002200003D51A7842F008021A70504B5049AA229E
:100230001A70504A504B8B4204D252F8040F43F8C4
:10024000040BF8E74D4B4E4900228B4202D243F893
:10025000042BFAE74B494C4A002352F8230041F89B
:1002600023000133742BF8D1484B494A802103F80D
:10027000011B9342FBD1474B424A1A60464B8A22EC
:100280001A70A3F5805324225A70A0221A709A790A
:100290009207FCD59A79D406FCD4404A937903F0AE
:1002A0000C03082BFAD13E4B60221A7002331A78E5
:1002B000802AFCD1394B01221A715D225A719A7938
:1002C0009006FCD59979354A4906FBD5354B364918
:1002D00019600021596020231370937903F00C03F7
:1002E0000C2BFAD1314B324A1A60324B324A1A6027
:1002F00000225A60072243F8042C304AC3F80C2D20
:1003000062B603F04DFE174B1B68DA0705D52C4883
:1003100003F0A4FD2B4B2C4A1A602C4B1B785B0678
:1003200009D5284C284B22689A4204D1244803F06E
:1003300095FD002323600AF0D7F804F0FBFF04F0DA
:10034000BBFDFEE70E20054030800440823F0400E4
:100350000100002B88ED00E0002008E0030000858C
:1003600010D0034014D0034002D0074000E0074003
:100370002C10FF1F08B800003007FF1F2C10FF1FB4
:10038000C41BFF1F0002FF1F0000000000E400E08C
:1003900064E400E008ED00E0005006400040064044
:1003A00001E007404480044000000602048004404D
:1003B000C010070014E000E01FBF02000000202072
:1003C000AB6DF4041CE00340A5C3945A00F0074051
:1003D000FFFFFFFFFFFFFFFFFFFFFFFFFFFFFFFF2D
:1003E000FFFFFFFFFFFFFFFFFFFFFFFFFFFFFFFF1D
:1003F000FFFFFFFFFFFFFFFFFFFFFFFFFFFFFFFF0D
:10040000FFFFFFFFFFFFFFFFFFFFFFFFDEF9FFFF23
:1004100010B5054C237833B9044B13B10448AFF33E
:1004200000800123237010BD2C10FF1F000000006E
:1004300004B80000084B10B51BB108490848AFF3D9
:1004400000800848036803B910BD074B002BFBD0A0
:10045000BDE81040184700BF000000003010FF1F2B
:1004600004B800002C10FF1F00000000027C02F006
:10047000080202F0FF0332B1C36A406A181A48BF8B
:100480006FF0004070471846704700BF103000F012
:1004900043BD00BF00B583B002AB012203F8011DCC
:1004A0001030194600F038FD03B05DF804FB00BFC2
:1004B000103000F02BBD00BF103000F03BBC00BF7F
:1004C00000B583B001220DF10701103000F06AFB86
:1004D00001280CBF9DF807004FF0FF3003B05DF816
:1004E00004FB00BF38B50821144C1548154D04F025
:1004F00003FC4FF4007003F001FD0121204604F0DD
:10050000FBFB4FF4007003F0F9FC0121204604F0DE
:10051000F3FB4FF4007003F0F1FC0121204604F0DE
:10052000EBFB284604F0D0FC284604F0CDFC4FF449
:100530000070BDE8384003F0E1BC00BF34B10000FA
:1005400054B000000018FF1F38B52B4C04F58C6523
:10055000284601F04DFE30BB2B21284804F0CCFB8F
:10056000274804F0B1FC264804F0AEFC772125486A
:1005700002F050FB58B11621234804F0BDFB20487F
:1005800004F0A2FC1E48BDE8384004F09DBC3121B7
:100590001E4804F0B1FB1A4804F096FC1848BDE868
:1005A000384004F091BC04F23C40256000F08CFA25
:1005B0000121204601F0D6FAB8B10F4D05F23C44B6
:1005C0002046294600F0E8FA0028C5D095F83C34CA
:1005D00013F0700FC0D00E4B0E481C60172104F0B2
:1005E0008BFB074804F070FCBDE70146204601F094
:1005F000B9FA0028E1D1AFE74810FF1FC4B00000EE
:100600000018FF1FB414FF1FACB0000078B000004A
:10061000F814FF1F60B0000070B58EB019491A4879
:100620000EAD00F0BBFB194B45F8343D00246323AD
:10063000144A15498DF8144005A84FF47A768DF8C0
:1006400015408DF808408DF81040039600F04AFAE6
:100650009DF8143063B115220D4905A800F05CFC2B
:10066000284604F031FC05A800F02EFA0EB070BD4B
:100670001E21084804F040FB074804F025FC0EB09A
:1006800070BD00BFF0B000008414FF1F3CB000003C
:1006900020B1000000B100000018FF1F38B5344D34
:1006A0003448354C0E2104F027FB284602F0EEFBBF
:1006B00010EE100A09F0CCF841EC100B2046022194
:1006C00004F052FC03212D4804F016FB204604F0F0
:1006D000FBFB13212A4804F00FFB284602F05AFCCA
:1006E00010EE100A09F0B4F841EC100B204602217C
:1006F00004F03AFC0321234804F0FEFA204604F0FB
:10070000E3FB1421204804F0F7FA284602F0F0FB3E
:1007100010EE100A09F09CF841EC100B2046022163
:1007200004F022FC0821194804F0E6FA204604F0FF
:10073000CBFB1421164804F0DFFA28469FED150A7A
:1007400002F03AFD10EE100A09F082F841EC100BAD
:100750002046022104F008FC07210F4804F0CCFADF
:10076000204604F0B1FB2046BDE8384004F0ACBBA5
:10077000B414FF1F38B100000018FF1F48B100007B
:100780004CB1000060B1000064B100007CB1000019
:1007900088B1000000507D44A0B1000070B52A4C23
:1007A00040F6B831204602F07BFE204627494FF440
:1007B000E13202F04FFE2046012102F029FE58B13D
:1007C000606C2349036811225B6898470A2003F094
:1007D00095FB204602F03CFE012200211A481D4CE8
:1007E0001D4E02F00DFF01210D2003F05DFB0121E4
:1007F0000D2003F045FB40F6B83003F07FFB174AAD
:10080000174910680B783BB123789B0704D0136815
:1008100035685B1B182B04D813681B1AB3F57A7F55
:10082000F0D9FFF75FFEFFF78FFE084804F04CFB9E
:100830000F210C4804F060FA044804F045FB03481B
:10084000BDE8704004F040BB6C15FF1F0018FF1F8F
:10085000A8B10000FC17FF1FBC1BFF1F0017FF1FE4
:10086000E417FF1FBCB1000070B52A4C84B02368A8
:100870000193019B23B923680293029B012B1ED98C
:10088000254D264E284602F047FD32682449904205
:100890000346086022D39A1AF92A10D94FF4FA7144
:1008A0002846336002F042FD0121284602F0B0FDE7
:1008B000B0B9052003F022FB174802F09FFD194C48
:1008C000FFF7ECFE23781BB9FFF7A6FE0123237088
:1008D0004FF47A7003F012FB04B070BD3360EEE7A2
:1008E0002846012102F034FD686C0F49036801229B
:1008F0005B689847236803930399686C00230A2276
:1009000004F0F2FA284602F069FD284602F0A0FD44
:10091000CFE700BF0017FF1F6C15FF1FB014FF1FAC
:10092000F414FF1FAC14FF1FCCB10000064B074AA4
:10093000C3F8602400220648DA7183F83C2483F867
:100940003D2401F00DBE00BF4810FF1FD8B10000CC
:10095000B414FF1F38B504460D46242200210AF0C6
:10096000DDF8A560EB79102B08D0202B04D14023B3
:1009700001202370A07038BD002038BD2023012045
:100980002370A07038BD00BF2DE9F041037803F05B
:1009900020032BB903F0FF044269214B9A4204D98A
:1009A0004FF000084046BDE8F081837801690546B4
:1009B00063F07F038068AB7005F1100201F07AF8F4
:1009C00080460028ECD02969A86801F00FF8064697
:1009D000A86831462430052200F0D0FF07460028E1
:1009E000DED04FF4007221460AF098F8AB681A790D
:1009F000012A10D9012403E0AB681A79A2420AD96E
:100A000018680368A1199B683A4698470134E4B214
:100A10000028F1D1C4E76B6903EB42226A61C1E7A8
:100A2000FFFD1F0010B5044680680A462430A16906
:100A300000F0A4FF20B1A38803F00F0300EB4310E4
:100A400010BD00BF38B590F90230002B044618DB0A
:100A5000A56805F1240000F0C1FF28B9637843F0D0
:100A600001036370002038BD05F50C7000F0B6FF7F
:100A70000028F3D0286803685B6898470028EDD009
:100A8000F1E70121FFF7CEFF05460028E6D0037805
:100A9000E52BE3D023780B4A1B0744BFE369C3610E
:100AA000236A126843831B0C83822AB100F116016A
:100AB000183090472B8B6B82A37803F07F03A370D1
:100AC000C6E700BFFC14FF1F10B5037804461BB92E
:100AD00000232370012010BDFFF7B4FF0023237013
:100AE00010BD00BFF0B5064693B0357801920020E6
:100AF0008DF824008DF825002DB91F460B7813F0D2
:100B0000700F0C4602D1002013B0F0BD13782F2BCC
:100B1000104616D10130019003782F2BFAD0002B0C
:100B200034D0A16809A8FFF715FF0028EBD0019881
:100B300009AC06E03046FFF785FF002301983370CB
:100B400009AC01AA03A900F0F5FA03AA2146012382
:100B50000028D8D0019D2D7830467DB100F006FDEB
:100B6000354609AC0028CED00FCD0FC40FCD0FC431
:100B700033782A682260002BDFD0DBE73B4603AAEC
:100B80002146304600F0F2FC13B0F0BDA1683046BB
:100B9000FFF7E0FEB8E700BF03780BB10020704715
:100BA000FFF7D8BE2DE9F04F0F46017883B0054618
:100BB00011B18378DC0708D46B784FF0FF3043F035
:100BC00002036B7003B0BDE8F08F0B07914600F194
:100BD0008780880608D5AA686B691289C3EB42131F
:100BE0009BB2994528BF9946B9F1000F00F0978054
:100BF0006B698A064E464FF0000805F1100AC3F3F0
:100C0000080B3FD5AA68116A01EB5321BBF1000F15
:100C100052D1B6F5007F4FD3D36A99424CD0B6F586
:100C2000806F66D328788006C6F3472B06D41079E8
:100C3000C8EB0000C0B2834528BF834699424FEA03
:100C40004B240BD85B44994208D202F12400019155
:100C500000F0C4FE0028AFD0AA68019910680268AD
:100C60005B46D2F80CB03A46D8470028A4D06B694E
:100C7000361B234427446B6151D029788A06C3F37D
:100C8000080BBFD4A86890F8058008EA5328BBF188
:100C9000000F2CD1B8F1000F29D1002B34D14C0614
:100CA0004CBF016A296A296100F0A0FEAA6808EB1E
:100CB0000001BBF1000FACD002F12400002200F0D3
:100CC0005DFE00283FF478AFCBF50074B44228BF36
:100CD000344600EB0B012246384602F0C3FFC6E75C
:100CE000EB696A699B1A994528BF99467CE729698F
:100CF000DAE7106803683A461B68984700283FF413
:100D00005BAF4FF40074B2E75246296900F074FEFD
:100D10000028FFF651AF08D0A8682969C4E700266B
:100D2000C6EB090003B0BDE8F08F2B7813F0700F0D
:100D3000F6D141E770B582B001220DF107010446FA
:100D400046690569FFF72EFF012805BF9DF80700DA
:100D500066614FF0FF30256102B070BD30B5436968
:100D6000C3F3431583B0044605B189B901220DF1DF
:100D700007012046FFF716FF40B201280BD1636937
:100D80001F336361A068303000EB451003B030BD05
:100D900020334361F6E7002003B030BD10B58AB0C0
:100DA00000240A460223014601A88DF804408DF86C
:100DB0000540FFF797FE10B101A800F0E1FA0AB074
:100DC00010BD00BF2DE9F04103780769044693B1D7
:100DD00042698A420E4636D021B9216166610120FE
:100DE000BDE8F08118070AD499060BD5A3681B89C2
:100DF000B6EB431FF2D927610020BDE8F081E1691D
:100E00008E42F8D8D4F808E09EF80650511E05F13D
:100E10000900751EC140C540A94200D8B2B95B06A1
:100E20004CBFDEF82030236A236104F110084246EB
:100E3000002DD3D02169A06800F0DEFD002805F167
:100E4000FF35F4DCD7E70120BDE8F0816D1AECE74F
:100E50002DE9F041884615460021242204461E460D
:100E60009DF8187009F05AFED8F80800D8F820301C
:100E7000E36005F00F02520100F130011144A0605F
:100E8000A580CB7A1B0714D4831893F83B3003F06A
:100E900017032370C97AE77011F0180F04BF43F0ED
:100EA0000803237016F0320F07D0237813F0110FC8
:100EB00003D000202070BDE8F08106F00F05A5707A
:100EC0000244C36AA361B2F84410B2F84A30F7068C
:100ED00043EA014107D42162D36CE361B30607D42E
:100EE0000120BDE8F08151B965F07F05A570F5E7F7
:100EF000E1692046FFF766FF0028F1D1D9E700F04D
:100F000015FE0028D5D0A578EEE700BF03780BB119
:100F1000FFF798BD012070472DE9F84F03781E07B1
:100F2000044670D583789D076DD55B070F469046C4
:100F300000F1CE806369DA43904564D8B8F1000FC0
:100F400000F0B78046464FF0000934E0002940F039
:100F50008480216A002900F08B80216100F046FD29
:100F60000146B6F5007F56D3B6F5806F67D3A26809
:100F70001379D06A5B1BDBB2C6F34725AB4228BFAF
:100F80002B4681424FEA432508D81844814205D2B6
:100F900082F824904FF0FF30D062A2681068026897
:100FA000D2F810A03A46D04768B36369761B2B4449
:100FB0002F4463617DD0A0682169457915EA5325E6
:100FC000C3F3080A34D1BAF1000FBFD000F00EFD10
:100FD0000146CAF50075B54228BF35460122A06812
:100FE000243000F0CBFC70B150442A463946AA4464
:100FF00002F038FEBAF5007FD7D1A068243000F0A7
:10100000EDFC0028D1D1637843F0010363704FF009
:10101000FF30BDE8F88F6369E269B6F5007F3546B9
:1010200028BF4FF40075934234BF01220522D6E752
:1010300000F0DCFC2918BAF1000F92D0C9E7A368D0
:10104000DA6A914222D0186803683A469B6898474A
:101050000028D8D04FF40075A7E704F1100B5A46CA
:1010600000F0CAFC0028CEDB17D02169A06875E724
:10107000A37863F07F03A37004F1100200F01AFD5F
:101080000028C0D021692162A06867E783F8249016
:101090004FF0FF32DA62A368D5E7A3782169A06830
:1010A00063F07F035A46A37000F004FD0028DCD1F2
:1010B000A9E7E2699A4212D2A278E36142F0800382
:1010C000A3701A0701D523788BB94046BDE8F88F85
:1010D000E169FFF777FE00287FF42CAF93E7084B18
:1010E0001B6853B1A37843F08003A370E9E720465F
:1010F000FFF7A8FC0028E8D185E7A378E1E700BF67
:10110000FC14FF1F38B5CB6873B105460C4624228A
:10111000002109F003FD102301202B70A870A268A4
:10112000E3682B62AA6038BD8968BDE83840FFF7E4
:1011300033BD00BF2DE9F04F0378202B03D110F809
:10114000013F202BFBD088600378002B00F0078143
:101150002F2B2FD05C2B22D0A3F12204E4B21D2C24
:1011600020D9DFF818E2461C00247C2BA3F12005CF
:10117000374614D05E2D12D816F8013BA3F1220594
:10118000EDB20134002B00F0D3802F2B13D05C2B59
:101190002EFA05F703D01D2DE7D8FF07E5D500206F
:1011A000BDE8F08F754D25FA04F4E407D9D5002089
:1011B000BDE8F08F002407193E4625462F2302E0A4
:1011C00016F8013F0135202BFAD02F2BF8D005441B
:1011D00015604CB13A4612F8013D2E2B02D0202B5F
:1011E00040F0A980013CF6D14FF0FF3523464B601B
:1011F00001F1170601F10C03202203F8012FB3427D
:10120000FBD1461E002200E0013216F8013F2E2BD2
:10121000FAD0202BF8D0B2FA82FC6E1C4FEA5C1C8C
:101220000CD0475D2E2F00EB050604D106E016F822
:10123000017D2E2F02D015F1FF35F8D2A2424FF0DA
:10124000000980F291804E46CA4607274FF00808F1
:1012500025E02E2B47D0222B0BD07C2B09D0A3F1DD
:101260002A0EBEF1050F48D9A3F13A0EBEF1050FC3
:1012700058D8AA4239D0B74229D34FF0000C5F2387
:1012800006F1010E01EB060B5FFA8EF6062E8BF8C7
:101290000D3000D80E730132A24207DA835C202B96
:1012A000D7D10132A2424FF0000CF7DB4B7B202B51
:1012B0003FF475AFBCF1000F47D01AEA090F18BF11
:1012C0004FF0020981F800900120BDE8F08F0A2F4D
:1012D00037D0AA4235DC2A460A2708264FF01008E4
:1012E0004FF0000CD7E7AA42DBD10A2F29D02A46BB
:1012F0000A2708264FF01008CDE72D2BB9D1A3F10E
:10130000210EBEF15D0FB4D8AA42EED0B742DED3B3
:10131000A3F1610EBEF1190F28D8203BDBB248EAD9
:101320000909ADE7A3F15B0EBEF1020FA1D9E6E713
:10133000176007194EE7FF2C3FF731AF651E2346B4
:1013400055E74B7B202B3FF42AAF0B7B0B4401204E
:101350007E24312208705C739A73BDE8F08F1060B0
:101360001C464FF0FF3542E7CA469FE7A3F1410E06
:10137000BEF1190F98BF4AEA080A81E7010100355A
:101380002DE9F04102788AB0002311078DF804306E
:101390008DF8053002D583789A0704D400263046AC
:1013A0000AB0BDE8F081016A0546002965D1012136
:1013B0002846FFF737FB0028F0D0411E00F10A074E
:1013C0000024620811F8016F42EAC41356FA83F34D
:1013D0008F42DCB2F5D14FF0E50880F80080AE68AE
:1013E000002306F124002B7000F0F8FA0028D5D075
:1013F00006F50C7000F0F2FA0028CFD030680368D0
:101400005B68984706460028C8D0EB78002BC6D00A
:1014100001A82946FFF776FE0028BFD0EB78002B05
:10142000BCD001271FE001A8FFF798FC7B1C002817
:10143000B4D0C27A0F2AB1D1027802F01F018F42D4
:10144000DFB2ABD1437BA342A8D180F80080A9686A
:1014500091F8243043F0010381F82430530612D46C
:10146000EB78BB429AD3A988C91B490101A8FFF7B1
:10147000A9FC00210028D6D190E7A86800F056FB0F
:1014800000288BD093E7AC6804F1240000F0A6FAA2
:10149000002883D004F50C7000F0A0FA00283FF477
:1014A0007DAF206803685B68984700283FF476AFFB
:1014B00075E700BF2DE9F8430F7B0E46044601F1A6
:1014C0000D054FF002084FF07E097068B16808EB17
:1014D00000039BB240B1084411F8012B03EB431306
:1014E000534088429BB2F7D1032F28BF03273A1DF0
:1014F000D2B203F00F01B018013A0929D2B294BF59
:101500003031373197424FEA13134173F1D3F31956
:10151000002183F80D902046FFF754FC012120465E
:10152000FFF71CFC0B2203460146A8B193F800E02C
:101530002846BEF1000F15D0DB7A1B07EED409F068
:10154000BBFA0028EAD108F101081FFA88F8B8F1BF
:10155000640FBAD1BDE8F8836078B0FA80F0400932
:10156000BDE8F8830120BDE8F88300BF2DE9F04F06
:101570000C7814F0700F8BB001D004781CB10020EF
:101580000BB0BDE8F08F1478D2F804B0A40740D1B6
:101590004FF001090E4692460990002130460F4651
:1015A0000893FFF70FFC0AF10D03079703973C46DA
:1015B000B84606970593756901213046C5F34F1566
:1015C000FFF7CCFB002800F0A1800378E52B39D091
:1015D000002B37D04C4538BF00242E2B2FD0C27A99
:1015E0000F2A3DD002F0080202F0FF033ABBB8F127
:1015F000000F40F066810B22059909F05DFA002882
:10160000D9D19AF80030DB0740F16F8101230693AE
:10161000D1E7BF4D0BF10C04A5FB04494FEA990932
:1016200009F101095FFA89F9B4E7039A013AD2B2E4
:101630009342039203D1437B079A9A421BD04FF007
:101640000008B8E7002C08BF2F464C453CBF0134CA
:10165000E4B2002B5ED0E52BBFD14FF00008AAE723
:10166000B8F1000FE1D15A06A5D503F01F08437B5E
:10167000CDF80C800793039B013B03EB430503EB81
:101680008505AB45DBD9C5EB0B0C0023049018E0B6
:10169000DAF80800D2B2A2F1410E415CBEF1190F96
:1016A00098BF2032A1F1410E98BFD2B2BEF1190FFE
:1016B0009CBF2031C9B29142C1D101330D2B3FF4FF
:1016C0007AAFDAB2042A05EB03010DD90A2A17D939
:1016D00004985A1C00EB420292889C450BD0FF2ACA
:1016E000D6D94FF0000866E7049A02EB43029C4506
:1016F000B2F80120F3D1002A18BF4FF000085AE7D2
:1017000004985A1E00EB4202D288E6E77378002B59
:101710007FF435AF089B03F04203422B7FF42FAFD9
:10172000002C18BF3D464C4503D31AE0DCB2A1455E
:1017300017D900213046FFF711FB631C0028F5D1B3
:10174000737823B11BE7B3681B79012B09D8A14536
:1017500007D93046FFF718F91034E4B20028F2D167
:101760000DE7069B33B151463046FFF7A3FE002834
:101770003FF405AF69013046FFF724FB00283FF432
:10178000FEAE09F1FF3818F0FF0866D048F04003BC
:10179000DBB203934446002500213046FFF7DEFA12
:1017A00000283FF4ECAEB268039992F82430A045CB
:1017B00043F0010308BF8E464FF00F0718BFA6463F
:1017C00082F824300AF10C01C772057380F800E03A
:1017D0000AF11707002311F801CF5A0842EAC31390
:1017E0005CFA83F38F42DBB2F5D10EF01F0E0EF1DF
:1017F000FF3E4373DAF8083085760EEB4E020EEBAF
:10180000820203EB0209C57600230FE0042B19F8CE
:10181000031000EB430EDFB214D90A2F72D8AEF8D2
:10182000041001330D2B02F1010212D09345EDD8C3
:1018300014BF4FF0FF310021042B89B200EB430E9F
:10184000DFB2EAD801330D2BAEF8011002F101022C
:10185000ECD1013C14F0FF049ED1002130467569A3
:10186000FFF77CFAC5F34F15044600283FF487AE16
:101870002022002109F052F95346264953F80D2F32
:101880005868606022601A899B7AA37222819AF854
:1018900000200B6802F018022273002B3CD004F1E8
:1018A0000E0104F110009847238AE189B26863822F
:1018B0002383E18292F8243043F0010382F824303C
:1018C00017E0039A012A7FF45AAE441E0A3014F836
:1018D000011F5A0842EAC31351FA83F3A042DBB254
:1018E000F5D1079A9A427FF44AAE089B1F063FF54E
:1018F00046AECDF80080089B09982A463146FFF78E
:10190000A7FA3DE6013300EB4307B9808AE700BF41
:101910004FECC44EFC14FF1F21212822A37308237F
:101920002174E37362744FF4006142F62103BDE752
:10193000F8B54368816800F10C060446186803682E
:1019400032469B68984740B123789A07054607D4EA
:1019500023F0010323702846F8BD00252846F8BD72
:101960006368A16818681F690368324639449B6838
:1019700098470028F1D02378EAE700BFF8B58368DC
:101980008B42064614460FD00378DA070F4612D46E
:10199000630716D506F10C05002304F003041C436D
:1019A00034702846B760F8BD10F90C3B04F003040E
:1019B0001C433470F8BDFFF7BBFF0028E8D10020BE
:1019C000F8BD73681868036806F10C051B682A46A1
:1019D000394698470028DFD1F1E700BF0378DB07DD
:1019E00001D401207047FFF7A3BF00BF837940698E
:1019F000023999400844704770B5C379202B0446DA
:101A00000D46164618D0102B13D18369C1F3072158
:101A10001944022200F50C70FFF7B0FF48B1EDB297
:101A200030F81530E26993429ABF012033600020FC
:101A300070BD4FF0FF3070BD8169022201EBD511FE
:101A400000F50C70FFF79AFF0028F2D005F07F0533
:101A500050F8253023F07043E4E700BF38B5C37970
:101A6000202B0C46154614D0102B01D0002038BD79
:101A70008369C1F30721194400F50C700322FFF7B5
:101A80007DFF03460028F1D0E4B2012023F8145072
:101A900038BD8169032200F50C7001EBD411FFF70A
:101AA0006DFF03460028E1D004F07F04012043F8D5
:101AB000245038BD2DE9F041054682B090460F46CE
:101AC000C1B9C668344604E001D0019BA3B1B44259
:101AD0000BD0EB6901349C4288BF0224214601AA45
:101AE0002846FFF789FF0028EEDA0026304602B0CC
:101AF000BDE8F0810E46E5E76FF0704221462846CA
:101B0000FFF7ACFF06460028EFD037B9EC6030464F
:101B1000C8F8004002B0BDE8F081394628462246A8
:101B2000FFF79CFF0028F2D1DFE700BF70B5054644
:101B300082B00C4608E0FFF791FF80B1EB689C4251
:101B400038BFEC60019C5EB101AA21462846FFF730
:101B500053FF061E21464FF000022846EBDA002014
:101B600002B070BDF8B5044600224FF0FF330120EB
:101B7000A462C4F83442E060E27184F8242084F85E
:101B80003022E362C4F838320D46C1B1042901D9CC
:101B90000020F8BD04F1240630461146FFF7EEFEA2
:101BA0000028F5D000EB051393F8AE315B06EFD1BA
:101BB0001B3500EB0515D5F8065015B9E8E704F11B
:101BC0002406304600222946FFF7D8FE0028DFD041
:101BD000B0F80B30B3F5007FDAD1037C022BD7D1FC
:101BE000C389002BD4D0467B2671731E0021012EA1
:101BF0006371A1710ED001210A4600E0194652001E
:101C0000D2B24B1C9642DBB203D0092BF6D1A171A4
:101C1000BEE7A171C38A4BB31F462761C6892E4414
:101C2000A661B0F8113023815A0102F2FF1206EBCF
:101C3000470303EB622262612362B0F8133003B9F9
:101C4000036AAD1A1D4425FA01F140F6F4734A1CEB
:101C50009942E2610CD94FF6F473994285BFC36A89
:101C6000236210232023E3710120F8BD476AD4E7E3
:101C70000C23E3718CE700BF034B04481B6818403A
:101C8000B0FA80F04009704730100B4001000F009F
:101C9000024B186800F00100704700BF24100B4091
:101CA000014B1878704700BF4015FF1F4FF47A7240
:101CB0002C4B02FB00F09842F0B44BD82A4D08227E
:101CC000012149000B01B5FBF3F39842264C3DD2AC
:101CD000013AF6D1B4FBF1F44B081F02A0423DD209
:101CE000214E4B00012200E02346B6FBF3F4A04254
:101CF00002F1010501EB030426D2102D2A46F3D18F
:101D0000F0221A4E1A4C18481A494FF47A7505FBFE
:101D100003F3B0FBF3F33360236823F0080323607D
:101D2000206820F47F2323F47F6343F460233B4344
:101D30001A4322600B681B07FCD50D4A136843F059
:101D400008031360F0BC70471201DAE7B4FBF1F44A
:101D5000CF01C3E7044C00270121BFE70B46002257
:101D6000CFE700BF4FA9AB000095BA0A4415FF1F8B
:101D70002C100B4024100B4001207047F8B505468D
:101D800002F098F8064F064604E002F093F8801B34
:101D9000B84203D8A84704460028F6D12046F8BD2B
:101DA00020A107002DE9F041DFF840800E4FC8F870
:101DB0000000054602F07EF8064606E002F07AF8DA
:101DC000801BB8420AD803F0C7F9A8470446002888
:101DD000F4D1C8F800002046BDE8F0810023C8F81F
:101DE00000302046BDE8F08120A107000815FF1F44
:101DF00038B504460F480D46FFF7C0FF08B1002074
:101E000038BD0D4A0D4B15600D481C60FFF7B6FF3D
:101E10000028F4D10B4A0C4B116819601968116045
:101E20001A68D207EBD51B6813F4702FE7D1012095
:101E300038BD00BF911C000008100B400C100B4077
:101E4000791C000030100B402815FF1F30B5154BD2
:101E500085B00D461968FFF7CBFF00B3124A134B4C
:101E6000126800921968019159680291083305F1CE
:101E70000F041B680393002301E051F8102C03F0BA
:101E80000301C9000133CA400DF1100E23F0030114
:101E90000F2B714404F8012DEFD10023EB7305B033
:101EA00030BD00BF1415FF1F10100B4014100B4065
:101EB00008B5074B07481968FFF79AFF30B1064B82
:101EC000186880F48070C0F3002008BD012008BDB0
:101ED0001415FF1F00001A0D10100B40054B186859
:101EE00010F0020005D01B6803481840B0FA80F0DB
:101EF000400970472815FF1F00007F11F8B59407AF
:101F000000D143B91E491F4B60204FF4A5720870E1
:101F10001A600020F8BD07461B481D460E461446B1
:101F2000FFF740FF08BB194B19491A4A4FF0010E41
:101F300083F800E0184B08601B781460EBB971025D
:101F40002B041648164E174C174A184D316043F4AF
:101F500000730360256016481760FFF723FF002811
:101F6000D7D1BDE8F840FFF7B9BF0549054B292097
:101F700040F24D1208701A60CBE73146E0E700BF2F
:101F80003007FF1F0415FF1FB11E00004015FF1F83
:101F90002815FF1F00100B400C15FF1F04100B40ED
:101FA00008100B4038100B400C100B4002007F1142
:101FB000A11C000030B59307ADF5017D11D0154689
:101FC00001236A461048FFF799FF044680B169462D
:101FD00028464FF4007201F045FE20460DF5017DC4
:101FE00030BD01230848FFF789FF04460028F4D1DB
:101FF0000649074B3120002440F251220870204648
:102000001A600DF5017D30BD11003A113007FF1F38
:102010000415FF1F10B59307ADF5007D0C4606D0E3
:10202000114668464FF4007201F01CFE6A462146D4
:1020300001230748FFF762FF30B90649064B3224F7
:1020400040F2C9220C701A600DF5007D10BD00BF72
:1020500001003A183007FF1F0415FF1F2DE9F0415A
:10206000940715D00646BBB115460C4601EB030894
:1020700001E0A04510D031682A460F68304621465D
:10208000B847013405F500750028F2D1BDE8F081AC
:102090000748FFF733FF10B10120BDE8F081054983
:1020A000054B312440F263220C701A60BDE8F081C8
:1020B00037003A123007FF1F0415FF1F2DE9F041CA
:1020C000940715D00646BBB115460C4601EB030834
:1020D00001E0A04510D031682A468F68304621467D
:1020E000B847013405F500750028F2D1BDE8F0814C
:1020F0000748FFF703FF10B10120BDE8F081054953
:10210000054B332440F2D9220C701A60BDE8F081EF
:1021100027003A193007FF1F0415FF1FF8B50446C2
:1021200019480D46FFF72AFE38B11849184B2920E7
:10213000E72208701A600020F8BD164F164B174AA8
:10214000DFF878E0164E17494FF0010C87F800C011
:102150001860154B1560154F154D164ACEF8004006
:10216000154837600D601A60FFF71CFE18B9FFF7BD
:10217000B5FE00B1F8BD0549054B2320F1220870DA
:102180001A600020F8BD00BFB11E00003007FF1F1D
:102190000415FF1F4015FF1F2815FF1F00100B40DF
:1021A00004100B4038100B400C100B404000010095
:1021B00002007F1111003A06A11C000008100B401C
:1021C00010B4074C074A08490848002323601468E4
:1021D0000C60096811605DF8044B0370704700BF24
:1021E00038100B4030100B402815FF1F4015FF1F03
:1021F0002DE9F04FAE4DAF48DFF83483AE4FAF4E10
:10220000AF49DFF830E3AF4C00232B70026888F849
:10221000003042F040623B70337002600A6842F462
:1022200000320A6000F57E3001F59F4104305C31D8
:10223000CEF80030036023600B6001F5C821A24A8C
:10224000C36020314FF08070136091B00A4608607F
:1022500013689E4CD901FBD44FF4C870FFF726FDDC
:10226000DFF8D4E2DFF8CCC29648994A994940F2A7
:102270004343CCF80030CEF800304FF4886EC0F8FD
:1022800000E0136002F5C82228320B60C360924957
:10229000924B9348106060204FF4003208701A602F
:1022A000236843F000632360216811F00061FBD1D3
:1022B0000846FFF79DFD044600284ED00A244FF43F
:1022C000D5718848FFF794FD00285DD1013CF6D117
:1022D0003378854E002B08BF4FF4401601F0EAFD1D
:1022E000824C814600218248FFF782FD50B9814A25
:1022F0004FF4EF71432311602B700024204611B07E
:10230000BDE8F08F31467C48FFF772FD0028EED023
:1023100001F0D0FD794B754AC9EB00009842E6D830
:102320002368002BDEDA764B116819601368754854
:102330005A0048BF01234FF0000148BF3B70FFF730
:1023400057FD044698B96B4A4FF4F4712123204697
:1023500011602B7011B0BDE8F08F664A40F2CD11CC
:102360002023204611602B7011B0BDE8F08F0021B2
:102370006548FFF73DFD0446D0B95E4A40F2EB11D7
:10238000222311602B70B9E7584B1B68B3F5D57F3A
:102390000AD0584A002440F2D31125232046116068
:1023A0002B7011B0BDE8F08F012333704E4E95E7CE
:1023B0004E4B564E1B68564956481B0C1B04336047
:1023C000FFF744FD044630B94A4A4FF4F87126231A
:1023D00011602B7092E750495048FFF737FD0446D3
:1023E00030B9444A40F2F311272311602B7085E77E
:1023F00031684B48FFF7FCFC044630B93D4A4FF4C6
:10240000FB71242311602B7078E731683848FFF79F
:10241000EFFC38B9374A4FF4FD71402311602B703F
:1024200000246BE702213F48FFF7E2FC0446002846
:10243000F0D03D4B3D481A6822F006021A601A6837
:102440004FF0101542F002021A60694605606FF005
:102450007F40FFF763FE18B19DF80D309B076DD4E8
:1024600046F2A810DFF8CCB0DFF8CCA0DFF854902B
:10247000174F184E144D0023CBF80030CAF8003027
:10248000C9F800303B6033602B60FFF70FFC40F26F
:1024900043434FF488610122CBF80030CAF8003082
:1024A000C9F800103B6033602B6088F8002025E7F6
:1024B0003007FF1F00D800400C15FF1F0015FF1F3D
:1024C0003080044008D0044014D004402C100B404D
:1024D0000CD0044010D0044051E400E008E100E0DA
:1024E0000B007F1100001A080000304010100B4054
:1024F00000001A370415FF1F0000022920A1070061
:102500001015FF1F0000090200001A031415FF1F19
:102510003015FF1F000009091815FF1F0000090AE8
:1025200000001B0700001A0628100B4044100B4047
:102530002C15FF1F00D0044004D004406946074812
:10254000FFF7ECFD00288BD09DF8103003F00F034F
:10255000012B85D14CF2503084E700BFF1FFFF80A2
:10256000FF22027342738273C273704790F90F3077
:102570005A1C27D02DE9F04105464FB2072600240A
:102580004FF0010801E095F90F30D8B2002101F0B9
:1025900077FC08FA06F13940C9B2687B01F070FC9B
:1025A0000121E87B01F06CFCA87B01F06FFC64006A
:1025B000E4B2013E08B144F00104731CE3D12046AB
:1025C000BDE8F081064B4FF00042DA6218465963CD
:1025D000C36A034A002BFBDA906BC0B2704700BF9E
:1025E00000C00240F8B5044690F90C00461C1546A0
:1025F00037D094F90F3001330E4649D0C0B20021D4
:1026000001F03EFC06F07F012046FFF7AFFF2946B0
:102610002046FFF7ABFF0121207B01F031FC94F94C
:102620000F30013300D0F8BD384B1B78002BFAD0A7
:10263000D80703D53649374A09681160990703D589
:102640003349354A496811605A0703D53049334A3E
:10265000896811601B07E6D52D4A314BD2681A6094
:10266000E1E723782F4C5B000126204684F83B30BD
:1026700084F85E6084F85D6000F0FEFF2946204625
:1026800000F0FAFF31462046BDE8F84001F008B9F5
:102690001E4B1A78002A2AD072B61B78D80707D5A5
:1026A0002149224A0F68126819483A4002600A60BC
:1026B000990707D51E491D4A0F68526814483A40C9
:1026C0000A6042605A0707D51A49184A0F6892688B
:1026D0000F483A400A6082601F0707D5164A134B1D
:1026E0001068DB680A4903401360CB6062B6134B85
:1026F000134AD968914206D0124F134813491F60FC
:10270000DA601861196094F90C0077E76815FF1F0B
:102710005815FF1F00E100E004E100E008E100E0DF
:102720000CE100E09416FF1F80E100E04815FF1F58
:1027300084E100E088E100E08CE100E000C00240BC
:102740000650003801401F000650007800001F802E
:10275000F8B590F838509DF81C7090F8346061F32B
:10276000871562F3020590F83C109DF8182067F376
:10277000C5069DF82070044663F3C50562F3471152
:1027800067F3020680F8385080F83C1080F8346017
:1027900002F00702F221FFF725FF94F8342002F03F
:1027A000070102F0380343EA411343EAD2122046FC
:1027B000F521FFF717FF94F8382002F0070102F027
:1027C000380343EA4113204643EA9212F421BDE85C
:1027D000F840FFF707BF00BF70B5044690F90C0042
:1027E000451C39D094F90F3001330D4657D0C0B293
:1027F000002101F045FB45F080012046FFF7B6FEC1
:1028000000212046FFF7B2FE01210546207B01F0A2
:1028100037FB94F90F30013301D0284670BD404B8F
:102820001B78002BF9D0D80703D53E493E4A0968EA
:102830001160990703D53B493C4A496811605A0722
:1028400003D538493A4A896811601B07E5D5354AEE
:10285000384BD2681A60E0E7374E237801255B00D9
:10286000304686F83B3086F85E5086F85D5000F0C2
:1028700003FF2946304601F013F82B462A462178FB
:10288000304601F0A3F896F8383096F839209A428D
:1028900043D9F2182B4486F83830157EBDE7204B1B
:1028A0001A78002A2AD072B61B78D80707D5234990
:1028B000234A0E6812681B48324002600A6099077A
:1028C00007D520491E4A0E685268164832400A60F1
:1028D00042605A0707D51C49194A0E689268114888
:1028E00032400A6082601E0707D5184A144B1068F0
:1028F000DB680C4903401360CB6062B6144B154A89
:10290000D968914206D0144E144815491E60DA6009
:102910001861196094F90C0069E7FF257DE700BF95
:102920006815FF1F5815FF1F00E100E004E100E0FB
:1029300008E100E00CE100E09416FF1F80E100E0F8
:102940004815FF1F84E100E088E100E08CE100E031
:1029500000C002400650003801401F0006500078B9
:1029600000001F8070B5044690F90C00451C40D053
:1029700094F90F3001330D466BD0C0B2002101F045
:102980007FFA45F080012046FFF7F0FD0021204648
:10299000FFF7ECFD002105462046FFF7E7FD01218A
:1029A00040EA0525207B01F06BFA94F90F300133E2
:1029B000ADB201D0284670BD464B1B78002BF9D034
:1029C000D80703D54449454A09681160990703D5DA
:1029D0004149434A496811605A0703D53E49414A73
:1029E000896811601B07E5D53B4A3F4BD2681A60E6
:1029F000E0E73E4E237801255B00304686F83B3009
:102A000086F85E5086F85D5000F036FE2946304666
:102A100000F046FF217802222B46304600F0D6FF18
:102A200096F8382096F839108A4250D2B0185319C7
:102A3000DBB290F9185086F8383099424FEA0525F4
:102A400045D9334402321B7E86F838201D43ADB28F
:102A5000B0E7204B1A78002A2AD072B61B78D80724
:102A600007D52349234A0E6812681B48324002608A
:102A70000A60990707D520491E4A0E685268164811
:102A800032400A6042605A0707D51C49194A0E684D
:102A90009268114832400A6082601E0707D5184AC2
:102AA000144B1068DB680C4903401360CB6062B6BE
:102AB000144B154AD968914206D0144E1448154952
:102AC0001E60DA601861196094F90C0055E74FF642
:102AD000FF756FE76815FF1F5815FF1F00E100E045
:102AE00004E100E008E100E00CE100E09416FF1FC3
:102AF00080E100E04815FF1F84E100E088E100E08C
:102B00008CE100E000C002400650003801401F0088
:102B10000650007800001F8038B588210446FFF772
:102B200021FF40BA20828A212046FFF71BFF40BACE
:102B300060828C212046FFF715FF40BAA0828E21CB
:102B40002046FFF70FFF40BAE08290212046FFF7B2
:102B500009FF40BA208392212046FFF703FF40BAC5
:102B6000608394212046FFF7FDFE40BAA0839621A2
:102B70002046FFF7F7FE40BAE08398212046FFF792
:102B8000F1FE40BA20849A212046FFF7EBFE40BABE
:102B900060849C212046FFF7E5FE40BAA0849E2178
:102BA0002046FFF7DFFE40BAE084A1212046FFF770
:102BB00013FEE12184F828002046FFF7D3FE40BA37
:102BC0006085E3212046FFF707FEE42184F82C000E
:102BD0002046FFF701FEE52105462046FFF7FCFDF4
:102BE00000F00F0040EA0510E085E6212046FFF7DF
:102BF000F3FDE52105462046FFF7EEFD001140EA12
:102C000005102086E7212046FFF7E6FD84F8320014
:102C100038BD00BF30B5044690F90C002170421C4D
:102C200085B020D0C0B2012101F02AF9207B01211A
:102C300001F03AF994F90F00431C3ED0C0B20121D3
:102C400001F032F90121607B01F02EF90021A07B17
:102C500001F02AF9D0212046FFF7BEFD60280BD0F5
:102C6000002005B030BD164800F038FDD0212046C8
:102C7000FFF7B2FD6028F3D12046B622E021FFF72E
:102C8000B1FC4FF4967001F039F9F3212046FFF7BB
:102C9000A3FD10F001054FF06400F4D12046FFF7CA
:102CA0003BFF052320460295019500931A46032118
:102CB000FFF74EFD012005B030BD00F0B5FAC9E7C1
:102CC0009416FF1FF8B590F90C500446681C44D0C8
:102CD00094F90F3001330E4678D0E8B2002101F0AC
:102CE000CFF846F080012046FFF740FC0021204647
:102CF000FFF73CFC002105022046FFF737FC0021CE
:102D000005432046FFF732FC2D0201210543207BBD
:102D100001F0B6F894F90F30013301D02846F8BD20
:102D2000494B1B78002BF9D0D80703D54749484AAF
:102D300009681160990703D54449464A49681160FA
:102D40005A0703D54149444A896811601B07E5D5F4
:102D50003E4A424BD2681A60E0E7414E2378012791
:102D60005B00304686F83B3086F85E7086F85D7012
:102D700000F082FC3946304600F092FD3B46217857
:102D80003046032200F022FE96F8383096F839409B
:102D9000A342C3D2F118DA19D2B2097E86F83820DC
:102DA00094424FEA0120B9D9B1189A1C097ED2B2D7
:102DB0000143A2424FEA012186F83820AED23244C4
:102DC0000333157E86F838300D43A7E71E4B1A787B
:102DD000002A2AD072B61B78D90707D52149224A82
:102DE0000D68126819482A4002600A609A0707D5E0
:102DF0001E491D4A0D68526814482A400A60426004
:102E00005F0707D51A49184A0D6892680F482A408B
:102E10000A6082601D0707D5164A134B1068DB68ED
:102E20000A4903401360CB6062B6134B134AD9685A
:102E3000914206D0124D134813491D60DA601861A3
:102E4000196094F90C5048E76815FF1F5815FF1FCB
:102E500000E100E004E100E008E100E00CE100E056
:102E60009416FF1F80E100E04815FF1F84E100E099
:102E700088E100E08CE100E000C00240065000382C
:102E800001401F000650007800001F8038B5FA216D
:102E90000446FFF717FFB0F5000F21D0218AB4F9DF
:102EA0001420B4F912509FED107AC1EB202303FBDC
:102EB00003F31B134900C1EBE01102FB03F39B1367
:102EC00005FB01F003EBE02000EB800380331B12D5
:102ED00007EE903AF8EEE77AA06087EE870A38BDF1
:102EE0009FED020A38BD00BF0000C8420000C07F4D
:102EF000F8B50446FFF7CAFF2046FD21FFF732FD73
:102F0000B0F5004F40D0A36894F82C7094F93220AB
:102F1000B4F92EC0B4F93060B4F92A1094F82850EE
:102F2000A3F5963E0EFB07F70EFB02F4FF1207F522
:102F30000047A21202FB07F24FEA0C539212C3EBB6
:102F4000803302F500120EFB163301FB02F203F58B
:102F5000804302F500529213DB1302FB03F3DA13F2
:102F600002FB02F2D21105FB02F2A3EB221323EAC9
:102F7000E373B3F1C85FA8BF4FF0C8531B1300EE53
:102F8000103ABAEECB0AF8BD9FED010AF8BD00BFBA
:102F90000000C07F2DE9F04F064685B0FFF776FFB1
:102FA0003046F721FFF78EFEB0F5000F039000F0DA
:102FB000F580B468B6F91A20B6F91880E517B4F5AB
:102FC000FA3445F1FF35A4FB04AB04FB05F30BEB2E
:102FD000430B02FB0BFED3170AFB03EEA2FB0A23F3
:102FE0007344170A47EA03671B124FEAE87908FBA4
:102FF00005FC00970193A8FB040104FB09CCDDE963
:10300000002361444FEA00384FEA013912EB08020D
:1030100049EA105943EB0903101CF28A43F50041B9
:10302000A0FB028902FB01994FEA69024FEAE973AA
:1030300052EA030100F0AD80B6F91E8003984FEA12
:10304000E87908FB05F104FB0911A8FB04450D44D0
:103050000711B6F920004FEA4549C11749EAD439AA
:103060004FEA444800FB0BF40AFB0144A0FB0AAB07
:10307000B6F91C00A344C100002401910094DDE9CD
:103080000045C7F580171AEB080A4FEAE7714BEBCA
:10309000090BF80714EB0A044FEAC17145EB0B0565
:1030A00041EA5701001B61EB050110EB000841EB01
:1030B000010918EB000849EB01094FEA89154FEAAD
:1030C000881445EA986518EB040849EB05094FEAAE
:1030D00089044FEA880544EA987415EB000844EB2C
:1030E00001094FEA88054FEA8904401944EA9874B7
:1030F000614107F02FF8B6F926204C134FEA503EF5
:103100004EEAC14E02FB04F5D3170EFB0355A2FB9A
:103110000E2302FB04F7B6F924402B440EFB037781
:10312000E517A2FB0E2304FB01FE3B444FEA526865
:1031300000FB05E7A4FB00453D4448EAC3184FEAFD
:10314000D44A10EB0800B6F922404FEA63694AEA14
:10315000453A41EB09014FEAE54B1AEB000A4BEB0C
:10316000010BE5174FEA1A2242EA0B6229012001FE
:103170004FEA2B23801841EA1471594106F0ACFF45
:103180009FED090A07EE900A27EE800A05B0BDE818
:10319000F08F9FED060A05B0BDE8F08F9FED040AA1
:1031A00005B0BDE8F08F00BF0000803B00000000CC
:1031B0000000C07FFFFFFFFF08B52DED028BB0EED2
:1031C000408AFFF7E7FEDFED167A80EE270AC0EEB1
:1031D000087A17EE900A06F03BFB9FED0D1B41ECC1
:1031E000100B05F099F8002053EC102B0D4906F058
:1031F000CFF909A3D3E9002306F07EFB06F04CFECD
:10320000BDEC028B00EE100A08BD00BFAFF30080DA
:1032100000000020C05BC83F0000000040A5E54062
:103220000000C8420000F03F2849294B0A6829489D
:10323000F0B442F48052284F284E294D294C0A60A0
:103240001F60DE601D611C60037813F003022DD047
:10325000012A17D0244A4FF40071116013F00C02B8
:1032600017D0042A27D1214A4FF40071116013F0BE
:10327000300315D0102B23D11D4B4FF400721A6070
:10328000F0BC70471B4A4FF40071116013F00C0240
:10329000E7D1194A4FF4007113F030031160E9D1FE
:1032A000164B4FF410721A60F0BC7047144A4FF47A
:1032B00010711160D2E7134A4FF400711160D6E724
:1032C000114B4FF400721A60F0BC70473C80044010
:1032D00000C00240FD17FF1F01401F000110003811
:1032E0000110007800001F80409004400CC0044092
:1032F00004C0044008C004401CB0044014B00440A2
:1033000018B00440449004403C90044001F08EBC4E
:1033100001F0B0BC01F0C6BC034B82B01B68019346
:10332000019802B0704700BF0017FF1F10B4074B91
:1033300082681B68016183B000240193019B446192
:10334000C260836003B05DF8044B70470017FF1F35
:10335000F0B51E4B1E4D1A680446406C83B00368DE
:1033600001920F465B681B49019E06229847394629
:10337000606C00230A2201F0B7FD606C16490368F7
:1033800003225B6898473146606C00230A2201F0F3
:10339000ABFD606C036829465B6801229847A16811
:1033A000606C711A00230A2201F09EFD606C0368B4
:1033B00029465B6801229847E368A168606CC91AD6
:1033C0000A22002301F090FD03B0F0BD0017FF1F9B
:1033D000F8B10000ECB10000F4B1000010B5446C8D
:1033E0000549236820465B68062298472046BDE8C9
:1033F000104001F069BD00BFFCB10000034B82B07A
:103400001B680193019B836002B070470017FF1F88
:1034100030B5044683B00D4D81B92B6800934268E6
:10342000009B9B1A632B09D8032000F067FD2B68D3
:103430000093009B62689B1A632BF5D92B6801935C
:10344000019B6360012003B030BD00BF0017FF1F68
:10345000704700BF2DE9F0410D4D0E4EDFF83C8066
:103460000D4F41641B2401E000F048FD2B78C8207B
:1034700043B133789B0705D0D8F800303A689B1ADF
:10348000182B03D8013CEFD1BDE8F081BDE8F081F5
:10349000E417FF1FFC17FF1FBC1BFF1F0017FF1FB8
:1034A00000238364436001B97047084600F026BDDD
:1034B00030B50F4B83B00446406C1B680193036822
:1034C000019A62600D465B680A49062298472946C0
:1034D000606C00230A2201F007FD606C0649036856
:1034E00008225B689847322000F008FD03B030BD29
:1034F0000017FF1F04B200000CB20000F8B5037EF5
:103500000BB96320F8BD0446406C3B4E03689B68D2
:10351000B3420D466AD101F0C5FB10F0FF0F01D197
:103520006520F8BD354F606C03689B68B3425FD17E
:1035300001F0B8FB10F0FF0FF2D0606C0368DB689D
:10354000BB4257D101F072FBC3B2A3F158021E2A4D
:10355000E9D801A151F822F0E53500002735000037
:1035600027350000273500002735000027350000EB
:1035700027350000273500002735000027350000DB
:1035800027350000D9350000273500002735000019
:1035900027350000273500000335000027350000DF
:1035A00027350000273500002735000027350000AB
:1035B00027350000273500002735000003350000BF
:1035C000273500002735000027350000273500008B
:1035D000D53500001846F8BD20462946FFF768FF9C
:1035E0006320F8BD002323766320F8BD984794E755
:1035F00098479FE79847A7E7153300000D33000071
:1036000038B50446154639B101230376002120461A
:10361000FFF774FF6328F9D1257638BD034B0022EC
:103620009A60DA601A615A61704700BF6C15FF1F1B
:1036300090F8392090F83800101A704790F8383018
:1036400090F839209A4205D95A1C034480F8382052
:10365000187E70474FF0FF30704700BF90F8383049
:1036600090F839209A4286BF1B18187E4FF0FF3021
:10367000704700BF704700BFB0F85E306BB190F884
:103680005D30202B07D8C218013380F85D3001204F
:1036900082F83B107047012303710020704700BF80
:1036A00038B50546B0F85E0090B195F85D30144627
:1036B000C3F1210294420CD805F13B001844224684
:1036C00000F0D0FA95F85D30234485F85D3020464F
:1036D00038BD012014462871EEE700BF002342697F
:1036E00080F8383080F8393080F85C3080F85D3010
:1036F00080F85E3080F85F3006CA30B40D68046927
:1037000043662A4383660A60A370426990F8613079
:103710001649146813441D7A5B7B01EBC5051B0237
:103720006D6803F4E06343F064032B6090F862304B
:1037300013449D7CDB7D01EBC5011B02496803F44A
:10374000E06343F064030B6021685368194205D0BD
:1037500003692C225A70036904229A71036920229A
:103760005A71036980229A7030BC7047E0B2000041
:1037700038B50269D478E4B2E106054624D51023B1
:10378000D37063061FD504F0040404F0FF03002C7B
:103790005AD042496A6E00230B7085F85D30002ACA
:1037A00066D0904795F85D30002B61D02B69D02210
:1037B0009A702B6995F83B201A712B69012285F8C4
:1037C0005C200222DA7038BD04F0400303F0FF00F1
:1037D000002BD8D19379DBB203F0600160294ED081
:1037E000937803F0100303F0FF01B3B114F0010468
:1037F00037D195F85C3095F85D1099424BD9591C3A
:103800002B4485F85C1093F83B3013712B69D02260
:103810009A702B690222DA70D5E785F860109379E7
:1038200043F0200393712B6995F839101A791F29F9
:10383000D2B2C6D8194800780028C2D06818013121
:1038400085F839100276BCE72A6985F83930C0233B
:1038500093702B69114A1979012111700222DA70D3
:10386000B1E7C02393702B691A790222DA70AAE7B4
:103870000122002385F85D2085F83B3096E703F0B0
:10388000DF039371AB6E23B185F8380095F83900EA
:1038900098472A69A4E71471B8E700BF9016FF1F84
:1038A000F0B503691222DA7002699378054698062A
:1038B00087B04ED5B423444C937023680293029E84
:1038C0002A6905E023680393039B9B1B042B57D8AD
:1038D000D37803F0200303F0FF00002BF2D095F81B
:1038E0005D30002B2ED000274FF0020EEB1993F81D
:1038F0003B30137123680493DDF810C0286908E099
:103900009B060ED523680593059BCCEB0303052B83
:103910003DD8C378DBB203F0020202F0FF06002AB2
:10392000EED080F803E02A69D378DBB2DE063DD41E
:103930009E063BD5DB0741D4013795F85D30FFB2D9
:10394000BB42D3D80020002934D1002385F85E3053
:103950001BE01D4C23680093009E05E02368019343
:10396000019B9B1B0F2B19D8D37803F0200303F086
:10397000FF00002BF2D1B02385F85F0093709CE725
:1039800090702B6980229A70042007B0F0BD867079
:103990002B69802204209A7007B0F0BD0023937039
:1039A0002B69802204209A7007B0F0BD80239370A9
:1039B0000420C8E72A6980239370C6E7002F0CBF54
:1039C00002200320F7E700BF0017FF1F2DE9F04199
:1039D000064612253469002086F8380086F839003A
:1039E000E5703769BC7804F020048AB0002C3CD024
:1039F000B420704DB87028680290DDF808E037698F
:103A000006E02C680394039CCEEB0404042C47D8F6
:103A1000FC7804F0200404F0FF00002CF1D04900F1
:103A200041F00101C9B2397129680491049F3469D8
:103A300005E0296805910599C91B05293FD8E1785A
:103A400001F0020101F0FF000029F2D00227E77027
:103A50003169C87810F0110038D1002A3AD1002B12
:103A60000CBFA02380238B701EE0524D04F0FF009A
:103A70002C680094DDF800C006E02C680194019CDD
:103A8000CCEB04040F2C12D8FC7804F0200404F0D2
:103A9000FF0E002CF1D1B02086F85FE0B870AAE7E5
:103AA000B870336980229A700AB0BDE8F0810023B3
:103AB000BB70336980229A700AB0BDE8F081A070B3
:103AC000336980229A700AB0BDE8F08180238B7040
:103AD0000020E9E7012A57D0A0248C7034692179AD
:103AE00086464FF0A80C29680691069805E02968DB
:103AF00007910799091A05294CD8E17801F00201CC
:103B000001F0FF080029F2D0013AD2B2E770012A91
:103B100004BF316981F802C0BEF11F0F346942D879
:103B200006EB0E01207908760EF1010E5FFA8EFE8B
:103B3000012AD8D12A680892089805E02A680992D3
:103B4000099A121A052A30D8E27802F0020202F02D
:103B5000FF01002AF2D00222E2703269B021BEF1E8
:103B60001F0F917023D8316906EB0E020979117687
:103B70000EF1010E5FFA8EFE13B1336980229A7046
:103B800086F839E070468FE7A8228A703469864645
:103B90002279CFE784F80280336980229A707046D8
:103BA00086F839E080E72179C2E7A170F4E732694D
:103BB0001279E1E70017FF1F0148FFF7D9BD00BFE9
:103BC0009416FF1F0148FFF7D3BD00BFB815FF1FB4
:103BD0000148FFF7CDBD00BF2416FF1FF0B5174801
:103BE0001749184A184B194D194C036145610023B8
:103BF0004FF47A75DFF868E0164F0371037380F8AD
:103C0000613080F8623085600460134E13480B7198
:103C10000B7381F8613081F862301371137382F88D
:103C2000613082F862308D600C60C1F810E04F6145
:103C30009560146016615061F0BD00BF9416FF1FBF
:103C4000B815FF1F2416FF1F0060064060B2000079
:103C5000C8B2000080B2000000600E40A0B20000B8
:103C600000700640844641EA000313F003036DD15F
:103C7000403A41D351F8043B40F8043B51F8043B2F
:103C800040F8043B51F8043B40F8043B51F8043B36
:103C900040F8043B51F8043B40F8043B51F8043B26
:103CA00040F8043B51F8043B40F8043B51F8043B16
:103CB00040F8043B51F8043B40F8043B51F8043B06
:103CC00040F8043B51F8043B40F8043B51F8043BF6
:103CD00040F8043B51F8043B40F8043B51F8043BE6
:103CE00040F8043B51F8043B40F8043B51F8043BD6
:103CF00040F8043B403ABDD2303211D351F8043B76
:103D000040F8043B51F8043B40F8043B51F8043BB5
:103D100040F8043B51F8043B40F8043B103AEDD224
:103D20000C3205D351F8043B40F8043B043AF9D275
:103D3000043208D0D2071CBF11F8013B00F8013B48
:103D400001D30B8803806046704700BF082A13D355
:103D50008B078DD010F003038AD0C3F10403D21A6D
:103D6000DB071CBF11F8013B00F8013B80D331F8A1
:103D7000023B20F8023B7BE7043AD9D3013A11F821
:103D8000013B00F8013BF9D20B7803704B7843708C
:103D90008B7883706046704710B4114B53F8302015
:103DA00092F8804234B1012379B182F880305DF815
:103DB000044B704703EBC0035B681A6851B922F0EB
:103DC00002021A605DF8044B704782F800315DF81A
:103DD000044B704742F003021A605DF8044B7047D1
:103DE000E0B200001C4A02EBC00301295B6811D05D
:103DF00004291BD052F83000002280F8802229B11B
:103E0000022920D0032922D01A6070474FF4807213
:103E10001A60704752F830004FF4A27280F8801296
:103E20001A601A6822F020021A60704752F83010A7
:103E30004FF4A272012081F880021A601A6842F0E1
:103E400020021A60704740F203121A6070474FF464
:103E500081721A60704700BFE0B2000030B4054BB9
:103E6000054D064C002210211A602A60206019605E
:103E700030BC704714D0034004D0034000D003404E
:103E80003F2801D8FFF788BF704700BF3F2806D8FA
:103E9000044B53F8303093F80002C0B27047002052
:103EA000704700BFE0B200003F2801D8FFF79ABF7B
:103EB000704700BF72B60D490D4B0E4A1B6808686B
:103EC000126862B6520102D5322B88BF0130C3F5A9
:103ED0002F33094903F21F334FF47A729B08A1FB79
:103EE000031302FB00F000EB930070470017FF1F65
:103EF00018E000E004ED00E0176CC1162DE9F8436E
:103F0000054672B6224F234B234A1B683C68126851
:103F100062B6520102D5322B88BF0134B5B3C3F566
:103F20002F3303F21F331D4EDFF86890DFF86880EF
:103F30009B084FF47A72A6FB031302FB04F404EB14
:103F4000930472B6D9F800103A68D8F800E062B667
:103F5000C1F52F3303F21F339B08A6FB03031EF0AA
:103F6000806FC4EB93034FF47A7002D0322988BF7C
:103F7000013200FB0233B3F57A7F04D3013D05D053
:103F800004F57A74DDE701F0E7F8DAE7BDE8F883D5
:103F90000017FF1F18E000E004ED00E0176CC116E9
:103FA000F8B54E4B4E48DFF85CC14E4C4E49DFF839
:103FB00058E14E4E4E4D4F4F4FF000621A604FF099
:103FC00080521A604FF000521A604FF080421A601F
:103FD0004FF000421A600022026028234EF6FF7064
:103FE000CCF80000CEF8003023600EF5012E0B60F7
:103FF00033602B6006F500263B6005F50025A362C3
:1040000007F500278B6204F5012401F5012106F66E
:10401000E87605F6E87507F57F6710310EF1100EAA
:10402000203433602B60CEF800303B600B6023609F
:10403000314CBB618B6109212160A7F5002704F594
:104040008054203F08343A602060BB60E36047F84A
:10405000041C04F5FD2407F5FE27043704F2FC7464
:1040600022603860A360FB6044F8041C083404F646
:10407000FC74C7F8FC2F2060A4F5E124A4F2DC74E2
:1040800033602B60C7F8F81F21681C4841F40071A9
:10409000216001681A4C0EF57F4E0EF1E80E07F50F
:1040A000883706F5803605F5803541F000710160EE
:1040B000CEF8002047F6FF710822396033602B608C
:1040C000226001F091F83220FFF718FF00F000FDA8
:1040D0004FF4AF70BDE8F840FFF710BF04E100E017
:1040E00004800340148003401C800340248003406C
:1040F0002C8003403480034000800340048004404F
:1041000000900C40088003400C800340431E032BAA
:1041100014D872B60A4951F8230068B170B4094C3A
:10412000058834F81320466841F82360521B24F8B0
:10413000132062B670BC704762B6704700207047AB
:104140005C17FF1FAC1BFF1F013803280BD872B68A
:10415000074B53F8203043B100205B680130002B3F
:10416000FBD162B67047002070471846F9E700BFE0
:10417000B017FF1FF0B472B61A491B4E012311F895
:10418000014B194F9A00240742F0010505D556F856
:10419000324064B156F83520BAB10133052BEED167
:1041A00062B6124B00221A70F0BC00F019BD0F4C21
:1041B0000F4D217847F8325007EB431308304A1E61
:1041C0005860227062B6F0BC70470849094B0A7803
:1041D00047F8353007EBC5030830013A58600A70DC
:1041E00062B6F0E714B500000000FF1FD917FF1FEB
:1041F00088004000C8004000431E032B1DD81B4A06
:10420000400140F0100030B4104472B6184CE25C2B
:10421000032A1BD8DFE802F00212151703220D88CB
:10422000E25410F0080F14BFC823882343EA054363
:1042300008310360416062B630BC7047083002222A
:10424000EDE70522EBE708300422E8E7094A52F8D7
:10425000230038B1084A52F82300416042F8231085
:1042600062B6E9E742F82310034AF7E70000FF1FB0
:10427000E817FF1FB017FF1FC017FF1F2DE9F04FF2
:10428000DFF800A3DFF800B387B044E0A84F4FEA9F
:10429000930807EBC809013ED9F8042003F008038E
:1042A000F6B2A2F1080003F0FF04002B40F0FC80FE
:1042B00057F838301B0C99B222F8081C002B00F07C
:1042C000EA809C4B22F8064C42F8044C53F8262016
:1042D000002A00F02982984D55F826305860974CF6
:1042E00045F8260034F81630194424F8161000F06A
:1042F00057FC002800F01182914A924B19F0080FE8
:1043000000F1080018BF1346C9F8040047F8383018
:1043100008238AF800309AF80040E4B260071AD502
:10432000894B1B78A3B189490A7802F0FF0322B1B7
:10433000013BDBB20B7003B900BE85490A7802F07D
:10434000FF032AB1013BDBB20B70002B00F0BB81F5
:1043500004238AF8003004F0080303F0FF02002B66
:1043600000F0C6809BF80030DBB21E098ED19C089D
:104370006F4F57F8342007EBC401C2F38302013AB0
:1043800049680C2A00F28380DFE802F077778181A8
:104390008181818140818181070008686D4B6E4D6C
:1043A0000193674B4A686D4E47F8343081B240F252
:1043B0008164684B6A60286000220120A1421A6073
:1043C0003A61BA61307000F2E180B1F5D06F80F0EF
:1043D0002582B1F5817F00F0DE8100F2C181802964
:1043E00000F03482822940F0DC81A9885C4B0429EA
:1043F00000F2D8815B4C89000B44227062701A78FD
:10440000930740F122832070022023E2514B019355
:104410001A683AB3544B514E5449188834780D7881
:104420004028864645F0020828BF4FF0400E002C79
:1044300084F001043470CEEB00000CBF8824C82443
:1044400007EBC80680B285F0010544EA0E447260AD
:10445000188047F8384072440D70002800F0B7808B
:10446000019B1A603C4B1A88B2F5A06F0FD1002156
:104470009A7859703E4B1A7009E0374A108842F218
:104480002102904200F0A8802D4A47F83420394A92
:10449000012313703CE72A4A2A4B19F0080F18BF72
:1044A000134647F8383033E700F09AFB324A334975
:1044B00052F82630002B00F03B8158688C5D42F8A2
:1044C000260003F10802C9F80420032C05D8DFE810
:1044D00004F02C02292602228A551A8819F0080FA6
:1044E0000CBF8823C82343EA024347F838300FE75C
:1044F000E00700F1EB80210600F12881A20706D534
:104500001F4A204913780220DBB213700870E306BB
:1045100002D51C4B10221A7007B0BDE8F08F0422A0
:104520008A55DAE705228A55D7E703228A55D4E768
:104530000000FF1F5C17FF1F0817FF1FAC1BFF1FAA
:10454000C800400088004000E417FF1F6D17FF1FE0
:10455000EC17FF1F0417FF1FD017FF1F6C17FF1F5B
:10456000C0200740DC17FF1F1817FF1FD817FF1FB9
:104570009820074094200740B017FF1FE817FF1F3F
:1045800088200740802007409020074042F2210405
:10459000A14200F0948043D8B1F5086F00F0A881E3
:1045A000B1F5106F40F0FD80B84AB94CA978117090
:1045B00004F1800503E00834AC4200F09E81236AD8
:1045C0001906F8D5606A083800F00AFBF3E7BEF177
:1045D000400F18BF002243E7AE4ACD1D11F8013B42
:1045E00002F8013FA942F9D1AB4A1268862A00F0CD
:1045F0001181AA49AA4E0A78307882F00105002874
:1046000042F002020D700CBF8821C82147F8321019
:1046100007EBC20280F0010000213070516033E7E7
:1046200042F22124A14240F0FE81DFF8BCC29D4B42
:104630009D49AC78DCF800501D6081460C7000206C
:10464000029080468446044694490D7845F0020E57
:1046500007EBCE03B9F1000F5C600CBF8824C824BF
:1046600044EA080385F0010447F83E3032700C70CC
:10467000DFF81CE28A4BDFF82482002840F09880A3
:10468000BCF1400F1BD144F0020407EBC403029FAE
:10469000DFF8FCE15F60002A40F09F80020442F0F6
:1046A000880207444EF8342086F800900D703B468F
:1046B000402804D100207D4A019910800B607C4A7B
:1046C00001231370E3E600F0D3FB41E6704B78481A
:1046D00072491A614FF0020E80F800E0754F0A70BF
:1046E000754919609960754E754D764C9A610D212A
:1046F0003970FF213170DFF8F4E129702270724DBA
:10470000724A8EF800109F27012406F8047C5D6031
:104710000470DA6007B0BDE8F08F6D4A47F83800E2
:10472000137801331370F3E543F82600694DD6E59D
:104730008B5D032B67D801A252F823F011430000D0
:1047400011430000914700008B47000059495C4B22
:1047500080220D2008701A70A2077FF5D8AECFE630
:1047600040F20232914240F05681A98801F07F0167
:10477000042916D86A88A2B94E4C89000C44814697
:10478000217841F00201217059E701238B55BFE5E3
:1047900000238B55BCE5A98801F07F01042940F274
:1047A0004781444B0F221A70414A012313706EE671
:1047B00040287FF668AF44F002040EEBC401029E6D
:1047C0004E60AAB1444A83F800903346403888F8D6
:1047D000005040334EF834206DE70204029B86F807
:1047E000009042F0C8020D7003444EF834205FE799
:1047F00083F80090029B304A88F8005040384033DC
:104800004EF8342057E719F0080F0CBF022303239A
:104810008B557DE5314A0F211170EAE6304A546824
:10482000002CBED06888B5F804E003E00C32546870
:10483000002CB6D013888342F8D153887345F5D144
:10484000000A03280CBF2078108903E0254C0220C1
:1048500022706270EA88824280F00C810F490D78E4
:10486000402A45F0020E944607EBCE0028BF4FF0D9
:10487000400C04EB0C0344600293CCEB02004FEAC3
:104880000C484FF001090022C824E9E6E417FF1F95
:104890000000FF1FB31BFF1FB41BFF1FD817FF1F14
:1048A0006C17FF1FBC1BFF1FFC17FF1F1817FF1FF4
:1048B00094200740C020074088004000882007401F
:1048C00080200740982007401C17FF1F7017FF1F0C
:1048D000D917FF1F0817FF1FC80040006D17FF1FE3
:1048E00018B50000DC17FF1F0017FF1F8C200740C2
:1048F000684A694C12782270ACE76849684B694A8B
:1049000002916949694C6A4D039405964FF000097C
:1049100088461C4616460495206828B1456800F074
:104920005FF92846002DF9D100232360049B3068ED
:104930001A46002342F8293028B1456800F050F9A2
:104940002846002DF9D100223260029A98F80030F2
:104950001146002241F8042B039A0291023B4FF0CA
:10496000000122F81910032B07D8DFE803F0340206
:1049700034024FF0010388F8003009F10109B9F160
:10498000040F04F1040406F1040608F10108C3D180
:10499000484B059EDFF83091DFF830810021197017
:1049A000012518F8013B09F8043B1A0718D4AC009C
:1049B00044F0020244F00304002347F8323047F881
:1049C00034303D4B994505F10105EAD196F8009048
:1049D00089F0010233E64FF0000388F80030CCE79D
:1049E00000F0DEF8AC0007EB451300F108020028E8
:1049F00037D05A60314B47F8343000F0D1F844F0EA
:104A0000010307EBC30200F1080100B351602C4A17
:104A100047F83320CCE7B1F5A06F7FF4C2AE002297
:104A20004FF001090BE642F221329142F7D0B8E68D
:104A30006A88002A7FF4B5AE224C89000C44814676
:104A4000217821F002012170F9E5022002E7194BDB
:104A500044F001021B7847F83200164A0133137004
:104A6000A6E7144B134A1B78AC00013347F8340017
:104A70001370C2E74028844628BF4FF0400C04EB77
:104A80000C03CCEB00004FEA0C48029300224FF0DD
:104A90000109D9E5E417FF1FDC17FF1FC017FF1F2F
:104AA0005C17FF1FB017FF1FE817FF1FAC1BFF1F8E
:104AB0000817FF1FD917FF1FD420074088004000A8
:104AC000C8004000C0200740C420074014B50000C3
:104AD0002DE9F041274C02F0DFFF002204F18800AD
:104AE00023461A605A60083383424FF00001F8D120
:104AF0002148224A0368DFF89CE0214E214D224FD5
:104B0000DFF894C0DFF8948043F4802303601368D7
:104B100043F04073136003238EF80030A0233370FA
:104B200002F5C922C4F3072300F528302B7080302A
:104B3000C4F3074310323B70240EFF230470134D5F
:104B40008CF80030124888F800301370012306F802
:104B5000AC3C4FF400140EF8441C7026102107F8EA
:104B60002C3C2E70046082F8F810AEF1440EBDE8C3
:104B7000F08100BF0000FF1F3480044000D80040D7
:104B8000402107409C200740B020074035E400E06A
:104B900004E100E0442107408020074088200740CE
:104BA00072B60D480268B2FA82F30B2B10DC4FF09C
:104BB0000041D94022EA0102026062B6074803EBD5
:104BC000C303DB00C2180021C1501046516070477A
:104BD00062B60020704700BF3407FF1FD003FF1FDD
:104BE0000D4B0E4AC31AA2FB03231B090B2B0CD837
:104BF0000B4A127852B972B60A484FF00041026867
:104C000021FA03F31A43026062B67047064A12782B
:104C1000002AF0D0FFF7AEBAD003FF1F398EE33879
:104C2000D917FF1F3407FF1FE417FF1F38B50F4DBB
:104C3000286878B143880288C118013393420C7AFE
:104C400002D24380204638BDFFF7CAFF002320462A
:104C50002B6038BD064B1B782BB10320FFF756FAAB
:104C600028600028E6D14FF0FF3038BDF817FF1F4D
:104C7000E417FF1F10B5094C206818B14388184489
:104C8000007A10BD064B1B782BB10320FFF73EFACC
:104C900020600028F2D14FF0FF3010BDF817FF1F41
:104CA000E417FF1F044B054A1B6890881BB11A8844
:104CB0005B88D31A18447047F817FF1FAC1BFF1FFF
:104CC0000B4B1B789BB110B50A4C206848B1FFF71D
:104CD00087FF002303202360FFF718FA30B1FFF7A6
:104CE0007FFF0320FFF712FA0028F8D110BD7047AC
:104CF000E417FF1FF817FF1F2DE9F04FDFF8F890BA
:104D000083B0012289F80020019169B3DFF8EC80BB
:104D1000354F019E8346D8F80000B0B3334D448828
:104D2000C4F14001B14228BF314604EB010E00221C
:104D30001FFA8EFE2A70761AA0F802E000F108022F
:104D400051B1013C224459441BF8014B02F8014F78
:104D50008B45F9D1B0F802E0BEF13F0F0BD8244AE1
:104D600005211170002ED6D10198002389F800305A
:104D700003B0BDE8F08F4022028001460420FFF717
:104D80003BFA0022C8F80020E9E73A7822B3194C30
:104D9000164D4FF0010A07E0013C16D02A78A2B95F
:104DA00000F0DAF93A78BAB10420FFF7CDF9072814
:104DB000F2D889F800A0FFF7F3FEC8F80000002839
:104DC000ADD10D4B013C1870E8D101234FF0FF30FD
:104DD0002B7003B0BDE8F08F00234FF0FF3089F84F
:104DE000003003B0BDE8F08FE417FF1FF417FF1F7A
:104DF000EC17FF1F21480100ED17FF1FF017FF1FE1
:104E000000B583B002AB012103F8010D1846FFF78E
:104E100073FF03B05DF804FBF8B5114B1B788BB141
:104E2000104E114D346801272F7064B10F4A63880A
:104E300000271770214623800420FFF7DDF9376033
:104E400000232B70F8BDFFF7ABFE084B28B10146DD
:104E500004201C70FFF7D0F9F2E71F70F0E700BFE5
:104E6000E417FF1FF017FF1FED17FF1FEC17FF1FC1
:104E700038B50E4B1B7873B90D4C216861B103F046
:104E8000FF054B880B800420FFF7B6F9256038BD7D
:104E9000084B01221A7038BDFFF782FE0028F7D0B8
:104EA0000146BDE838400420FFF7A6B9ED17FF1F03
:104EB000F017FF1FEC17FF1F08B5FBF76FFCFBF7A0
:104EC000D3FC00F049F9FAE700B5064A03681288F6
:104ED0005B6883B001A9ADF804200222984703B0B3
:104EE0005DF804FBE0B40000F0B507468BB0002A83
:104EF00033D0012A08BF0A2251B3212400E0F4B2C2
:104F0000B1FBF2F502FB1511C8B2092900F130011D
:104F100098BFC8B20AA988BF3730214488BFC0B241
:104F200001F8240C661E2946002DE8D133B1013C5E
:104F3000E4B20AAB23442D2203F8242C3B6801AAD7
:104F400011195B683846C4F1220298470BB0F0BDD6
:104F500030228DF825202124E8E70368C9B21B68B8
:104F600098470BB0F0BD00BF2DE9F04357EC106B34
:104F700085B005460C4610EE102A3B4610EE100A8E
:104F8000394604F053FF002840F0B28027F0004972
:104F9000304649464FF0FF32594B04F047FF90B975
:104FA000304649464FF0FF32554B04F021FF50B9CF
:104FB0002B6854495B682846032298478046404640
:104FC00005B0BDE8F0834FF060424F4B30463946A4
:104FD00004F022FF002872D14FF060424B4B304664
:104FE000394604F0FBFE002869D100220023304638
:104FF000394604F0F3FE002864D18146002C67D0C6
:10500000434900204FF000083BA3D3E9002308F1F7
:10501000010804F071FC5FFA88F39C42F4D8024660
:105020000B463046394604F0B5FA0F46064604F002
:1050300013FF804604F0EAFB02460B463046394631
:1050400004F0A6FA4B4606460F460A224146284679
:10505000FFF74AFF0F2C28BF0F2404F101092E236C
:1050600080465FFA89F98DF8003001240022294B2F
:105070003046394604F040FC0F46064604F0ECFE8C
:1050800004AB2344C0B200F1300203F8102C04F04A
:10509000CDFB02460B463046394604F079FA01341E
:1050A000E4B2A14506460F46E0D12B684A465B684C
:1050B000284669469847404605B0BDE8F0832B680E
:1050C000154977E707F100431F464FF0010995E7BF
:1050D00000220F4B3046394604F05CFA04F0BCFE67
:1050E0004B4601460A222846FFF7FEFE804666E749
:1050F0002B680A495EE700BF000000A09999B93FFC
:10510000FFFFEF7FECB40000FFFFEF41FFFFEFC1B7
:105110000000E03F00002440E8B40000E4B40000D8
:10512000FFF7CEBDFFF778BE08461146FFF7E4BD96
:105130000846FFF765BE00BF704700BF044B054A35
:105140001A604FF47A71002299601A711A737047CD
:105150000018FF1FF8B4000010B5224C237803B1EB
:1051600010BD01232370FFF79DFDA0B900F060FC86
:10517000B8B901F00BF8D0B901F0DCFAE8B901F0E8
:10518000E5FD00BB02F088F818BB02F0A5FB30BBC0
:105190000023237010BDFFF7CFFF00F049FC00286B
:1051A000E7D002F02FFD00F0F1FF0028E4D002F07C
:1051B000DDFD01F0BFFA0028E1D002F08BFE01F026
:1051C000C5FD0028DED002F039FF02F065F80028A6
:1051D000DBD002F0E7FF02F07FFB0028D8D003F01D
:1051E00089F8D5E71018FF1F30B42948294A2A4BFF
:1051F0002A4D6024E121047011701B78284C082B83
:1052000030D00A2B2748284937D00C2B0CBF352229
:105210005D2212232A60236002600B60234B244925
:105220001B78244ABBB101230B601360224B234936
:105230001B78234A012B26D9042B0FD9082B1ED902
:10524000102B94BF862387230B6013601D4B012214
:105250001A7030BC70470B601360E7E784230B6063
:105260001360F3E700F58E200F4908302122132345
:105270002A60236002600B60D0E73922F7E78523BC
:105280000B601360E2E780230B601360DEE700BF72
:1052900000400740014007403807FF1F08B00340A7
:1052A0000CB0034008B00B400CB00B401218FF1FAD
:1052B00020B0034020B00B403907FF1F24B003404B
:1052C00024B00B401118FF1F024A1368013313600A
:1052D000704700BF0017FF1F08B5104C08E0236897
:1052E00059050DD423681A050FD42368DB0411D4A3
:1052F00023685803F3D5FEF7C1FF23685905F1D59C
:1053000000F018FC23681A05EFD500F0C1FF2368F0
:10531000DB04EDD501F07CFAEAE700BF34800440FD
:1053200008B5FFF7D9FF00BF014B10221A80704764
:1053300000200540704700BF094908B50B6830B12F
:105340006A461844A2F50052904202D208601846FC
:1053500008BD05F0C3F80C2303604FF0FF3008BD13
:105360003C07FF1FEFF3138070B9EFF310836BB9A5
:10537000EFF305825AB94FF48070EFF311832BB12C
:10538000984228BF184670474FF0FF3070470F2AE9
:1053900001D81846F1E7014BD05CEEE7F0E300E0FE
:1053A000084A1378802B01D0002070470649074B2C
:1053B00007480860002119701378802BFCD0012069
:1053C000704700BF03E007404480044001E007400D
:1053D00000002822094A1378012B01D000207047D1
:1053E00003F1804303F5FC23602119701378802BAF
:1053F000FCD1034B034A1A600120704703E00740C9
:105400004480044000000602F0B44D1E2E460024E5
:1054100000E00134B0FBF2F302FB1300092800F1B5
:1054200030078ABF3730F8B2C0B206F8010F18460D
:10543000002BEED10A1953704CB1107815F8016F9A
:1054400028700133E01A834202F80169F5DB08464F
:10545000F0BC70472DE9F84F214B1B6807460BB194
:1054600001221A70DFF888901E4D99F80040DFF88D
:1054700084801D4E01343F2C8ABF4FF0000A5FFA32
:1054800084FA5446AB462B78A34216D1FFF76AFF45
:1054900040281FDC33791B06F5D59BF8003001331B
:1054A0003F2B86BF00221346DAB218F80330DBB276
:1054B000F3712A702B78A342E8D00C490A4BFFB253
:1054C00008F804700120BC22087089F800A0DA7086
:1054D000BDE8F88FFF28D6DDFFF73EFED3E700BF1B
:1054E000A418FF1FA118FF1F00A00640A018FF1F4F
:1054F000A818FF1F1C18FF1F2E4A2F491368F0B56C
:1055000043F4806313600A782C4F2D4E2D4D2E4CA2
:105510002E490023152A3B7033702B7023700B70BB
:1055200043D01B2A3CD04AB3294B1B78052B2DD0E6
:105530001A2B30D0012B1CD0264B274C2749C0F307
:105540004436C0F347151E7000F01F005D70042242
:105550004FF0020E88273C26402598729A704FF033
:10556000004083F813E05A751F74DE7025700860E0
:10557000F0BD1B4B4FF451721A60DDE7194B40F23E
:1055800013321A60124B1B78052BD1D1164B4FF4F6
:1055900051721A60D0E7154B4FF451721A60CBE785
:1055A000134B40F213321A60BEE7124B40F2133233
:1055B0001A60B9E7348004405C18FF1F1818FF1FF9
:1055C0001918FF1FA818FF1FA118FF1FA018FF1F01
:1055D0004007FF1F00A006401FE400E000E100E0DC
:1055E00044A0044040A004401CC004403890044043
:1055F0003C90044018C00440194B19499B7803F0B3
:10560000EC0200F003031343420700F00F0248BF0F
:1056100043F01003042A8B701CD0114B104A5B79A5
:10562000C10603F0EF0348BF43F0100353719379B1
:10563000820603F0EF030A4A48BF43F01003937158
:10564000C30506D553781178DBB241F02001117003
:10565000537070478B7943F040038B71DDE700BFD7
:1056600000A00640284B1B685B0533D510B5274CBE
:10567000237823B1FFF770FD2378002BFAD124485B
:10568000244A254B4FF0004400210460D1701B7860
:10569000152B20D01B2B32D01BB9204B40F203120C
:1056A0001A601F4B1B7803F07F03052B1DD01A2BAC
:1056B00020D0012B03D11B4B40F203121A601A4B6E
:1056C0001A481B491A68002303700B700AB10123A2
:1056D000137010BD7047174B40F203121A60104B45
:1056E0001B7803F07F03052BE1D1134B40F203122B
:1056F0001A60E4E7114B40F203121A60DFE7104B27
:1057000040F203121A60CCE734800440A018FF1F57
:1057100080E100E000A006405C18FF1F40A00440AC
:105720004007FF1F44A004401418FF1F1818FF1F54
:105730001918FF1F18C004401CC0044038900440D2
:105740003C9004400A4A38B50546137803F0FF043C
:10575000002BFAD101212846FEF7A6FB2146284658
:10576000FEF78EFB034A044B52F835201A6038BD11
:10577000A018FF1FE0B20000A418FF1F09B140F0FD
:1057800080001E4A137898421BD010B41C4C246829
:10579000640513D503F07F03052B2AD01A2B24D0E0
:1057A000012B14D0002900F07F0114BF6023442393
:1057B000052915D01A290ED0012903D010705DF8E3
:1057C000044B70470F4943F440730B60F6E70D4BF1
:1057D00000241C60E6E70C4943F440730B60EDE7DE
:1057E0000A4943F440730B60E8E7074B00241C6050
:1057F000D8E7064B00241C60D4E700BF4007FF1F1A
:105800003480044044A00440389004401CC004404C
:10581000174A137883420ED016490968490509D5FD
:10582000152B20D01B2B1AD05BB115280DD01B28AF
:1058300010D008B1107070470F4B40F2133119604F
:10584000F8E70D4915280B60F1D10C4B40F21331EC
:105850001960EFE70A4B40F213311960EAE7084B91
:1058600000211960E1E7054B00211960DDE700BF69
:105870005C18FF1F3480044040A0044018C004405E
:105880003C9004400D4B1B6813F4806305D03F2807
:1058900005D90B4B00201860704718467047094B1C
:1058A00010B5074C53F8303023600121FEF7FCFAA5
:1058B000236800221A70012010BD00BF348004400C
:1058C0001418FF1FE0B200000F4B1B6813F4806335
:1058D00008D0122808D0142811D00C4A537B03F0AA
:1058E000FE03537300207047094B40F202321A60E6
:1058F000064A537B43F00103537301207047054B65
:1059000040F202321A60F3E73480044000A00640FF
:105910000CA0044014C00440034B1B685B0501D578
:10592000FFF798BD704700BF348004402DE9F84F61
:10593000294B1B685A0548D5284B1B6805460BB1F7
:1059400001221A7005EB010A554540D2DFF89C8010
:10595000234CDFF89C90234F0AE015F8012B09F83F
:105960000B20214A0123AA45137088F800602ED02D
:1059700098F80030227803F1010BBBF13F0F86BF8E
:105980000026B3465FFA8BF69345E6D1BC22FA7047
:1059900005E03A7913060BD422789345DDD1FFF761
:1059A000E1FC4028F5DDFF28F6DDFFF7D5FBF3E746
:1059B000227801323F2A86BF00210A46D1B219F867
:1059C0000220D2B2FA712170E6E7BDE8F88F054BEC
:1059D000BC22DA70BDE8F88F34800440A418FF1FA1
:1059E000A118FF1F00A00640A018FF1FA818FF1F46
:1059F0001C18FF1F10B5044C237823B1FFF7ACFB34
:105A00002378002BFAD110BDA018FF1F064A074BC0
:105A10001B781078DBB2C0B283422CBF3F3000F15C
:105A2000FF30C01A704700BFA118FF1FA818FF1F42
:105A3000054A064B10781B78C0B2DBB2984238BFDB
:105A40004030C01A704700BF1818FF1F1918FF1FF9
:105A500030B4154B154C1A782378D2B2DBB29A4287
:105A60001ED001333F2B0ED91149124B087819680B
:105A70000023C0B2237021B1D31A1A2B01DC0023FA
:105A80000B7030BC70470A480A49C05C0968DDB237
:105A9000C0B225700029F4D09A4238BF4032EBE7FB
:105AA0004FF0FF30EDE700BF1818FF1F1918FF1F58
:105AB0006018FF1F1418FF1F084A094B12781B7843
:105AC000DBB29A4207D00133402B28BF0023054A9E
:105AD000D05CC0B270474FF0FF3070471818FF1FFE
